S01300004D696E6950726F6A6563742E73726563AD
S113000045C0000060C000005EC000005CC000008D
S11300105AC0000058C0000056C0000054C0000080
S113002052C0000050C000004EC000004CC0000090
S11300304AC00000D1C2000046C0000044C0000015
S113004042C0000040C000003EC000003CC00000B0
S11300503AC0000038C0000036C0000034C00000C0
S113006032C0000030C000002EC000002CC00000D0
S11300702AC0000028C0000026C0000024C00000E0
S113008022C0000020C000001EC0000011241FBEBA
S1130090CFEFD0E4DEBFCDBF11E0A0E0B1E0E8E7F0
S11300A0F0E100E00BBF02C007900D92AE31B10742
S11300B0D9F721E0AEE1B1E001C01D92AC33B20743
S11300C0E1F77BD5D7C79CCFCF93DF93CDB7DEB70E
S11300D081E01AD00000DF91CF910895CF93DF9390
S11300E0CDB7DEB784E690E0ABD088E30DD086E0F0
S11300F00BD08FE009D081E007D08AE090E0A0D057
S11301000000DF91CF910895CF93DF931F92CDB775
S1130110DEB7898382E290E022E230E0F9012081B7
S11301202E7FFC0120838BE290E02981FC01208357
S113013082E290E022E230E0F90120812260FC01B9
S11301402083000082E290E022E230E0F901208185
S11301502D7FFC01208382E090E072D000000F909C
S1130160DF91CF910895CF93DF931F92CDB7DEB780
S1130170898382E290E022E230E0F901208121606B
S1130180FC0120838BE290E02981FC01208382E240
S113019090E022E230E0F90120812260FC0120831A
S11301A0000082E290E022E230E0F90120812D7F1C
S11301B0FC01208381E090E043D000000F90DF91A8
S11301C0CF910895CF93DF9300D000D0CDB7DEB7A1
S11301D08A837C836B838A8189830FC0898191E0C0
S11301E0980F998318D08B819C819C012F5F3F4F7E
S11301F03C832B83FC018081B6DF8B819C81FC01D5
S11302008081882359F700000F900F900F900F9072
S1130210DF91CF910895CF93DF931F92CDB7DEB7CF
S113022089838981813120F4898181586DDF03C0FC
S11302308981815569DF00000F90DF91CF91089586
S1130240CF93DF9300D000D000D0CDB7DEB79E832C
S11302508D831A82198213C01C821B8206C000007F
S11302608B819C8101969C838B838B819C818730BD
S11302709340ACF389819A8101969A838983298179
S11302803A818D819E812817390734F30000269620
S11302900FB6F894DEBF0FBECDBFDF91CF910895A6
S11302A0CF93DF93CDB7DEB787E290E027E230E06B
S11302B0F90120812860FC01208387E290E027E295
S11302C030E0F90120812061FC01208387E290E085
S11302D027E230E0F90120812460FC012083000042
S11302E0DF91CF910895CF93DF93CDB7DEB788E246
S11302F090E028E230E0F90120812460FC012083B1
S11303000000DF91CF910895CF93DF93CDB7DEB78F
S113031088E290E028E230E0F90120812B7FFC01A3
S113032020830000DF91CF910895CF93DF93CDB761
S1130330DEB788E290E028E230E0F901208128600D
S1130340FC01208388E290E028E230E0F90120817A
S1130350277FFC0120830000DF91CF910895CF9384
S1130360DF9300D0CDB7DEB788E290E028E230E03A
S1130370F90120812061FC01208381E08983898146
S11303808A95F1F7898388E290E028E230E0F90168
S113039020812F7EFC01208381E08A838A818A95D3
S11303A0F1F78A8300000F900F90DF91CF910895A9
S11303B0CF93DF9300D0CDB7DEB78A8319820DC007
S11303C08A81882314F48FDF01C09EDFAEDF8A8127
S11303D0880F8A8389818F5F89838981883080F33C
S11303E0BEDF00000F900F90DF91CF910895CF935F
S11303F0DF93CDB7DEB781E890E02BE0FC012083EA
S113040088E890E02DE730E0FC01318320838FE61B
S113041090E022E0FC01208384E890E0FC0111825A
S113042010828091040190910501A0910601B09180
S1130430070180931F0190932001A0932101B093A1
S113044022018FE590E02FE530E0F901208120685A
S1130450FC0120830000DF91CF9108950F931F9337
S1130460CF93DF931F92CDB7DEB781E080931E0157
S11304701982A6C08981282F30E0C901880F991FED
S1130480820F931F880F991F880F991F815D9E4FBC
S1130490FC0120813181428153818981682F70E080
S11304A0CB01880F991F860F971F880F991F880FFC
S11304B0991F855D9E4FFC0180819181A281B3814A
S11304C0281739074A075B0708F449C08981082FB0
S11304D010E08981282F30E0C901880F991F820F0D
S11304E0931F880F991F880F991F8D5C9E4FFC01E5
S11304F0408151818981282F30E0C901880F991FDB
S1130500820F931F880F991F880F991F875D9E4F35
S1130510FC0180819181FA0109959C01C801880F31
S1130520991F800F911F880F991F880F991F875D4E
S11305309E4FFC01318320838981282F30E0C9013B
S1130540880F991F820F931F880F991F880F991F77
S1130550815D9E4FFC011082118212821382898177
S1130560682F70E08981282F30E0C901880F991F16
S1130570820F931F880F991F880F991F815D9E4FCB
S1130580FC0180819181A281B38125E030E040E0CB
S113059050E0280F391F4A1F5B1FCB01880F991F9A
S11305A0860F971F880F991F880F991F815D9E4F93
S11305B0FC01208331834283538389818F5F898344
S11305C081E09981981708F455CF00000F90DF91CE
S11305D0CF911F910F9108951F920F9200905F0089
S11305E00F92112400905B000F922F933F934F932F
S11305F05F936F937F938F939F93AF93BF93EF9387
S1130600FF93CF93DF93CDB7DEB780911F01909115
S11306102001A0912101B09122010197A109B10902
S113062080931F0190932001A0932101B093220194
S113063080911F0190912001A0912101B09122018C
S1130640892B8A2B8B2B89F409DF809104019091EB
S11306500501A0910601B091070180931F019093B9
S11306602001A0932101B09322010000DF91CF91DA
S1130670FF91EF91BF91AF919F918F917F916F9176
S11306805F914F913F912F910F9000925B000F90DB
S113069000925F000F901F901895CF93DF9300D0C6
S11306A000D0CDB7DEB769837A838B839C8389813D
S11306B09A81AB81BC818093040190930501A0933E
S11306C00601B09307018091040190910501A09166
S11306D00601B091070180931F0190932001A0931C
S11306E02101B093220100000F900F900F900F9002
S11306F0DF91CF910895CF93DF9300D000D0CDB791
S1130700DEB78A837C836B838A818830D0F48A81C4
S1130710882F90E00896880F880F880FF5DC1982DF
S11307200DC08981882F90E02B813C81820F931F1B
S1130730FC01808118DD89818F5F898389818830FC
S113074080F300000F900F900F900F90DF91CF91E6
S11307500895CF93DF93CDB7DEB76D970FB6F894B6
S1130760DEBF0FBECDBF9D8F8C8F81E090E02DD476
S113077080933A018C8D9D8D8130910591F082306A
S113078091051CF4892B41F041C08230910509F197
S1130790039709F43EC03AC081E090E09D8F8C8FAE
S11307A03BC080912301882361F480912401882334
S11307B041F480912501882321F480912601882326
S11307C019F082E090E002C081E090E09D8F8C8F70
S11307D023C081E090E09D8F8C8F109223011092B2
S11307E02401109225011092260180910B01909111
S11307F00C018C34910578F080910B0190910C01DF
S1130800499790930C0180930B0105C01D8E1C8E9B
S113081003C0000001C000008C8D9D8D019709F07C
S1130820C0C1C5D383709078992324F401978C6F49
S11308309F6F019680932701BAD323E030E0B9017A
S113084026D38093360110923801A4C180912701E8
S1130850882F90E0835F9E4FFC018081A9DD809109
S11308603601882F90E08F5E9E4FFC018081882F97
S113087090E020913801222F30E002C0880F991FA8
S11308802A95E2F795DD80910B0190910C01D8DC5B
S113089083E290E0FC018081882F90E081709927A9
S11308A021E0892B09F020E0822F8093350183E237
S11308B090E0FC018081809582708093280183E21E
S11308C090E0FC0180818095847080933B0183E2F9
S11308D090E0FC018081809588708093370180913D
S11308E023018823D1F0809135018823B1F48091CC
S11308F02701882391F480913801282F30E08091DA
S11309003601882F90E046E050E0BA01681B790B6D
S1130910CB01281739070CF05CC08091240188238F
S1130920D1F0809128018823B1F48091270181308E
S113093091F480913801282F30E080913601882F7E
S113094090E046E050E0FA01E81BF90BCF012817CC
S113095039070CF03EC0809125018823C9F08091AD
S11309603B018823A9F480912701823089F4809186
S11309703801282F30E080913601882F90E046E03E
S113098050E0BA01681B790BCB01281739070CF525
S113099080912601882309F4BFC080913701882300
S11309A009F0BAC080912701833009F0B5C0809165
S11309B03801282F30E080913601882F90E046E0FE
S11309C050E0FA01E81BF90BCF01281739070CF4A2
S11309D0A3C082E090E09D8F8C8F809108018F5F8F
S11309E080930801809108018A3310F190910801E5
S11309F080913A01981790F080910901803221F09A
S1130A0080910A01813351F460E381E090E0E5D202
S1130A1080E380933A0181E38093090161E384E0F8
S1130A2090E0DBD280E38093080181E380930A01A4
S1130A309091080180913A01891790F480910901FD
S1130A40803221F080910A01813351F480910801B0
S1130A50682F81E090E0C1D28091080180933A012F
S1130A6080910801882321F480E28093390103C036
S1130A7080E38093390183E5898383E68A838FE663
S1130A808B8382E78C8385E68D838AE38E8380E281
S1130A908F8380910A01888780E289878091390158
S1130AA08A871B868091080189870EDBCE01019617
S1130AB0BC0181E087DB8CE0AEDB80E054DB88E4C2
S1130AC08C8789E68D8787E68E8788E68F8780E224
S1130AD0888B83E5898B83E68A8B8FE68B8B82E711
S1130AE08C8B85E68D8B8AE38E8B80E28F8B809155
S1130AF00901888F80E2898F809139018A8F1B8E4A
S1130B0080913A01898F81E086DBCE010C96BC018D
S1130B1081E158DB000044C080913501882321F035
S1130B2081E08093230131C080912801882321F042
S1130B3081E08093240129C080913B01882321F026
S1130B4081E08093250121C080913701882321F021
S1130B5081E08093260119C080912301882381F4C8
S1130B6080912401882361F480912501882341F434
S1130B7080912601882321F480913801873029F45B
S1130B8083E090E09D8F8C8F0BC0809138018F5F44
S1130B908093380180913801883008F457CE02C020
S1130BA001C000008C8D9D8D6D960FB6F894DEBF4C
S1130BB00FBECDBFDF91CF910895CF93DF93CDB713
S1130BC0DEB76B970FB6F894DEBF0FBECDBF68DB00
S1130BD087E290E02FEFFC01208388E290E0FC01A3
S1130BE0108284E290E0FC01108285E290E02FEF15
S1130BF0FC01208381E290E02FEFFC01208382E25C
S1130C0090E0FC0110828AE290E02FEFFC01208347
S1130C108BE290E0FC01108281E090E0D6D18F3F1E
S1130C2021F460E081E090E0D8D184E090E0CDD17F
S1130C308F3F21F460E084E090E0CFD181E090E048
S1130C40C4D180933A0184E090E0BFD1809309013C
S1130C5045DA64E171E080E04EDD8091080188238B
S1130C6021F480E28093390103C080E38093390149
S1130C702BE0CE010196FC01322F11923A95E9F74F
S1130C8083E5898383E68A838FE68B8382E78C837B
S1130C9085E68D838AE38E8380E28F8380E2888772
S1130CA080E2898780E389870FDACE010196BC014F
S1130CB081E088DA8CE0AFDA80E055DA88E48C876A
S1130CC089E68D8787E68E8788E68F8780E2888B22
S1130CD083E5898B83E68A8B8FE68B8B82E78C8B0B
S1130CE085E68D8B8AE38E8B80E28F8B8091090160
S1130CF0888F80E2898F809139018A8F1B8E809141
S1130D003A01898F81E087DACE010C96BC0181E13A
S1130D1059DA1092380180913801282F30E0C90146
S1130D20880F991F820F931F880F991F880F991F8F
S1130D30875D9E4F2FEF3FEFFC013183208380912D
S1130D403801282F30E0C901880F991F820F931FA3
S1130D50880F991F880F991F9C01255D3E4F8AE0DB
S1130D6090E0A0E0B0E0F90180839183A283B38393
S1130D7080913801282F30E0C901880F991F820F14
S1130D80931F880F991F880F991F815D9E4FFC0147
S1130D90108211821282138280913801282F30E050
S1130DA0C901880F991F820F931F880F991F880FFD
S1130DB0991F8D5C9E4F29EA33E0FC013183208327
S1130DC0809138018F5F8093380180913801282FFA
S1130DD030E0C901880F991F820F931F880F991F54
S1130DE0880F991F875D9E4F2FEF3FEFFC013183E2
S1130DF0208380913801282F30E0C901880F991F82
S1130E00820F931F880F991F880F991F9C01255DDE
S1130E103E4F8AE090E0A0E0B0E0F9018083918346
S1130E20A283B38380913801282F30E0C901880F51
S1130E30991F820F931F880F991F880F991F815D37
S1130E409E4FFC011082118212821382809138011C
S1130E508F5F8093380185E090E0A0E0B0E0BC01B2
S1130E60CD011BDCC4DA83E590E023E530E0F90131
S1130E7020812160FC012083889583E590E023E5AF
S1130E8030E0F90120812E7FFC012083ECCF97FB19
S1130E90072E16F4009406D077FD08D02DD007FC59
S1130EA005D03EF4909581959F4F08957095619576
S1130EB07F4F0895A1E21A2EAA1BBB1BFD010DC092
S1130EC0AA1FBB1FEE1FFF1FA217B307E407F507F6
S1130ED020F0A21BB30BE40BF50B661F771F881FD2
S1130EE0991F1A9469F760957095809590959B0168
S1130EF0AC01BD01CF010895AA1BBB1B51E107C082
S1130F00AA1FBB1FA617B70710F0A61BB70B881F95
S1130F10991F5A95A9F780959095BC01CD01089524
S1130F208F929F92AF92BF92CF92DF92EF92FF92F5
S1130F30CF93DF93EC01688179818A819B8161156C
S1130F4071058105910521F464E279ED8BE597E063
S1130F502DE133EF41E050E052D049015A019B01A9
S1130F60AC01A7EAB1E467D06B017C01ACEEB4EF4D
S1130F70A50194016CD0DC01CB018C0D9D1DAE1D2F
S1130F80BF1DB7FF03C00197A109B04888839983A7
S1130F90AA83BB839F77DF91CF91FF90EF90DF907F
S1130FA0CF90BF90AF909F908F900895B9CF80E07D
S1130FB091E0B6CFA0E0B0E08093000190930101EE
S1130FC0A0930201B09303010895F999FECF92BD55
S1130FD081BDF89A992780B50895262FF999FECFF7
S1130FE092BD81BDF89A019700B4021639F01FBA78
S1130FF020BD0FB6F894FA9AF99A0FBE0895052EFB
S113100097FB16F400940FD057FD05D053DF07FC6F
S113101002D046F408C050954095309521953F4F35
S11310204F4F5F4F089590958095709561957F4FD0
S11310308F4F9F4F08950FD0A59F900DB49F900D93
S1131040A49F800D911D11240895B7FFF4CFF3DF01
S1131050821B930B0895A29FB001B39FC001A39F6D
S1131060700D811D1124911DB29F700D811D1124DD
S10B1070911D0895F894FFCFCF
S11310780100000001000000312020C8003FCFF328
S1111088FC03070F0A0A0A00111B0E000000E9
S9030000FC
