S01B00006176616E673030315F6C6162345F70617274322E7372656361
S113000045C0000061C000005FC000005DC000008A
S11300105BC0000059C0000057C0000055C000007C
S113002053C0000051C000004FC000004DC000008C
S11300304BC00000BAC0000047C0000045C000002B
S113004043C0000041C000003FC000003DC00000AC
S11300503BC0000039C0000037C0000035C00000BC
S113006033C0000031C000002FC000002DC00000CC
S11300702BC0000029C0000027C0000025C00000DC
S113008023C0000021C000001FC0000011241FBEB7
S1130090CFEFD0E4DEBFCDBF11E0A0E0B1E0ECE0F3
S11300A0F5E100E00BBF02C007900D92A632B10744
S11300B0D9F721E0A6E2B1E001C01D92AB36B20748
S11300C0E1F768D70C94840A9BCFCF93DF9300D0D9
S11300D000D0CDB7DEB769837A838B839C83898113
S11300E09A81AB81BC818093000190930101A0931C
S11300F00201B09303018091000190910101A0914C
S11301000201B09103018093270190932801A093E9
S11301102901B0932A0100000F900F900F900F90C7
S1130120DF91CF910895CF93DF93CDB7DEB781E808
S113013090E02BE0FC01208388E890E02DE730E09C
S1130140FC01318320838FE690E022E0FC012083D0
S113015084E890E0FC01118210828091000190916A
S11301600101A0910201B0910301809327019093B2
S11301702801A0932901B0932A018FE590E02FE58F
S113018030E0F90120812068FC0120830000DF9128
S1130190CF910895CF93DF93CDB7DEB781E08093FD
S11301A026010000DF91CF9108951F920F920090D5
S11301B05F000F92112400905B000F922F933F93E6
S11301C04F935F936F937F938F939F93AF93BF935B
S11301D0EF93FF93CF93DF93CDB7DEB780912701E1
S11301E090912801A0912901B0912A010197A109B8
S11301F0B1098093270190932801A0932901B0931A
S11302002A018091270190912801A0912901B091A0
S11302102A01892B8A2B8B2B89F4BCDF8091000166
S113022090910101A0910201B091030180932701F3
S113023090932801A0932901B0932A010000DF9133
S1130240CF91FF91EF91BF91AF919F918F917F914A
S11302506F915F914F913F912F910F9000925B00AE
S11302600F9000925F000F901F9018950F931F93AB
S1130270CF93DF9300D000D0CDB7DEB769837A8304
S11302808B839C8380912D0190912E01A0912F014D
S1130290B09130019C01AD0169817A818B819C818F
S11302A0BAD7882309F473C020E030E0A90169813A
S11302B07A818B819C81AFD7882351F481E990E0C6
S11302C021E930E0F90120812870FC01208309C074
S11302D081E990E021E930E0F90120812360FC010B
S11302E0208328E539E344E75FE369817A818B81E0
S11302F09C8191D7882344F488E990E02FEF3FEF65
S1130300FC013183208332C020E034E244EF56E420
S113031069817A818B819C810E941D0A181634F4AC
S113032088E990E0FC011182108220C008E910E005
S113033020E030E040E053E469817A818B819C8144
S11303400E94210ADC01CB019C01AD0160E074E252
S113035084EF9AE464D7DC01CB01BC01CD01C7D79B
S1130360DC01CB010197F8019183808384E990E05B
S1130370FC011182108289819A81AB81BC818093B6
S11303802D0190932E01A0932F01B0933001000012
S11303900F900F900F900F90DF91CF911F910F91BD
S11303A00895CF93DF93CDB7DEB780E990E020E4E2
S11303B0FC01208381E990E02BE0FC01208360E0D4
S11303C070E0CB0153DF0000DF91CF910895CF930C
S11303D0DF9300D01F92CDB7DEB78B831A821982C8
S11303E027C088E290E028E0FC01208388E290E0C6
S11303F028E230E0F9012081422F2B81222F30E0C6
S1130400098002C0359527950A94E2F72170242BC0
S1130410FC01208388E290E028E230E0F9012081A9
S11304202260FC01208389819A8101969A838983C1
S113043089819A810897ACF288E290E028E230E062
S1130440F90120812460FC01208388E290E0FC0112
S1130450108200000F900F900F90DF91CF910895BC
S1130460CF93DF9300D01F92CDB7DEB78B831A8270
S113047019822DC088E290E020E8FC01208388E204
S113048090E028E230E0F9012081422F2B81222FD5
S113049030E0098002C0359527950A94E2F7229549
S11304A03295307F3227207F32272071242BFC01A4
S11304B0208388E290E028E230E0F9012081206284
S11304C0FC01208389819A8101969A838983898199
S11304D09A8108977CF288E290E028E230E0F90102
S11304E020812064FC01208388E290E0FC011082DA
S11304F000000F900F900F90DF91CF910895CF934C
S1130500DF93CDB7DEB78AE790E02AE730E0F90160
S11305102081206EFC0120830000DF91CF9108959B
S1130520CF93DF93CDB7DEB780910401813011F40E
S113053010924A0180910401823019F481E0809381
S11305404A0180910401843019F482E080934A01C5
S113055080910401883019F483E080934A018091EA
S11305600401803119F484E080934A0180910401EC
S1130570803219F485E080934A018091040180342B
S113058019F486E080934A0180910401803819F4BB
S113059087E080934A010000DF91CF910895CF93C3
S11305A0DF9300D0CDB7DEB79A83898389819A819E
S11305B081309105B9F08230910531F1892BB1F583
S11305C080E290E0FC018081882F90E0847099277C
S11305D0892B29F481E090E09A8389832AC01A82C6
S11305E0198227C080E290E0FC018081882F90E08E
S11305F084709927892B29F482E090E09A83898377
S113060018C01A82198215C080E290E0FC01808132
S1130610882F90E084709927892B29F482E090E058
S11306209A83898306C01A82198203C01A821982A6
S1130630000089819A818130910551F082309105C1
S113064071F0892BE1F410922B0110922C0117C048
S113065081E080932B0181E080932C0110C081E024
S113066080932B0180912C01873030F480912C01F0
S1130670880F80932C0103C081E080932C01898131
S11306809A810F900F90DF91CF910895CF93DF93CC
S113069000D000D0CDB7DEB79C838B8330DF8CE7EE
S11306A090E02CE730E0F901308121E0332309F0B8
S11306B020E0FC01208388E790E0FC0180819181A7
S11306C09A8389838B819C818230910509F441C08E
S11306D0833091052CF4009759F0019751F15FC0D4
S11306E08330910509F44DC0049709F45BC057C0E9
S11306F060E070E0CB01BADD80912B01882329F002
S113070081E090E09C838B834EC080E290E0FC010A
S11307108081882F90E088709927892B39F482E0B2
S113072090E09C838B8310924A013DC01C821B8203
S11307303AC080912B01882329F081E090E09C83CA
S11307408B8331C060E070E0CB0190DD1C821B82A2
S11307502AC01092310110924A0180E290E0FC011B
S11307608081882F90E088709927892B29F083E075
S113077090E09C838B8317C082E090E09C838B8302
S113078012C080913101853528F483E090E09C8388
S11307908B8309C084E090E09C838B8304C01C821B
S11307A01B8201C000008B819C818230910509F479
S11307B0DCC38330910534F4009761F0019709F4A8
S11307C07AC0D8C38330910509F48DC3049709F422
S11307D0BEC3D0C389819A81813E9105A8F48CE778
S11307E090E0FC018081882379F4809104018230B7
S11307F028F481E08093040193DE06C08091040113
S11308008695809304018CDE89819A81892BD1F0AD
S113081089819A81813E9105A8F48CE790E0FC01DE
S11308208081813079F480910501823028F481E05F
S11308308093050175DE06C080910501869580933D
S113084005016EDE89819A818D3B9240B0F08CE780
S113085090E0FC018081882381F480910401882345
S11308602CF480E8809304015BDE24C080910401B1
S1130870880F8093040154DE1DC089819A818D3BC9
S1130880924008F474C38CE790E0FC0180818130CD
S113089009F06DC380910501803428F080E88093CD
S11308A005013EDE64C380910501880F8093050134
S11308B037DE5DC35CC380912B01882309F459C3DF
S11308C080910401813021F4809105018130C1F1CE
S11308D080910401823021F480910501813081F1FD
S11308E080910401843021F480910501813041F12B
S11308F080910401883021F480910501813001F157
S113090080910401803121F4809105018130C1F08E
S113091080910401803221F480910501813081F0BD
S113092080910401803421F480910501813041F0EB
S113093080910401803831F580910501813011F5F1
S113094080914A01282F30E080910601909107019F
S1130950A0910801B0910901220F331F220F331F08
S1130960255B3E4FF90180839183A283B3838091F9
S1130970060190910701A0910801B0910901BC0101
S1130980CD0174DC80910401813021F48091050152
S11309908230C1F180910401823021F480910501FB
S11309A0823081F180910401843021F48091050129
S11309B0823041F180910401883021F48091050155
S11309C0823001F180910401803121F4809105018C
S11309D08230C1F080910401803221F480910501BC
S11309E0823081F080910401803421F480910501EA
S11309F0823041F080910401803831F58091050105
S1130A00823011F580914A01282F30E080910A014B
S1130A1090910B01A0910C01B0910D01220F331F95
S1130A20220F331F255B3E4FF90180839183A283FC
S1130A30B38380910A0190910B01A0910C01B091B4
S1130A400D01BC01CD0112DC80910401813021F43F
S1130A50809105018430C1F180910401823021F438
S1130A6080910501843081F180910401843021F466
S1130A7080910501843041F180910401883021F492
S1130A8080910501843001F180910401803121F4C9
S1130A90809105018430C1F080910401803221F4F9
S1130AA080910501843081F080910401803421F427
S1130AB080910501843041F080910401803831F542
S1130AC080910501843011F580914A01282F30E08E
S1130AD080910E0190910F01A0911001B09111012C
S1130AE0220F331F220F331F255B3E4FF9018083F2
S1130AF09183A283B38380910E0190910F01A09101
S1130B001001B0911101BC01CD01B0DB8091040151
S1130B10813021F4809105018830C1F18091040174
S1130B20823021F480910501883081F180910401A3
S1130B30843021F480910501883041F180910401D1
S1130B40883021F480910501883001F180910401FD
S1130B50803121F4809105018830C1F08091040135
S1130B60803221F480910501883081F08091040164
S1130B70803421F480910501883041F08091040192
S1130B80803831F580910501883011F580914A0152
S1130B90282F30E08091120190911301A09114014B
S1130BA0B0911501220F331F220F331F255B3E4FD7
S1130BB0F90180839183A283B38380911201909180
S1130BC01301A0911401B0911501BC01CD014EDBBC
S1130BD080910401813021F4809105018031C1F1BB
S1130BE080910401823021F480910501803181F1EA
S1130BF080910401843021F480910501803141F118
S1130C0080910401883021F480910501803101F143
S1130C1080910401803121F4809105018031C1F07B
S1130C2080910401803221F480910501803181F0AA
S1130C3080910401803421F480910501803141F0D8
S1130C4080910401803831F580910501803111F5DE
S1130C5080914A01282F30E080911601909117016C
S1130C60A0911801B0911901220F331F220F331FD5
S1130C70255B3E4FF90180839183A283B3838091E6
S1130C80160190911701A0911801B0911901BC01AE
S1130C90CD01ECDA80910401813021F480910501C9
S1130CA08032C1F180910401823021F480910501E8
S1130CB0803281F180910401843021F48091050116
S1130CC0803241F180910401883021F48091050142
S1130CD0803201F180910401803121F48091050179
S1130CE08032C1F080910401803221F480910501A9
S1130CF0803281F080910401803421F480910501D7
S1130D00803241F080910401803831F580910501F1
S1130D10803211F580914A01282F30E080911A0128
S1130D2090911B01A0911C01B0911D01220F331F52
S1130D30220F331F255B3E4FF90180839183A283E9
S1130D40B38380911A0190911B01A0911C01B09171
S1130D501D01BC01CD018ADA80910401813021F4A6
S1130D60809105018034C1F180910401823021F425
S1130D7080910501803481F180910401843021F453
S1130D8080910501803441F180910401883021F47F
S1130D9080910501803401F180910401803121F4B6
S1130DA0809105018034C1F080910401803221F4E6
S1130DB080910501803481F080910401803421F414
S1130DC080910501803441F080910401803831F52F
S1130DD080910501803411F580914A01282F30E07B
S1130DE080911E0190911F01A0912001B0912101D9
S1130DF0220F331F220F331F255B3E4FF9018083DF
S1130E009183A283B38380911E0190911F01A091CD
S1130E102001B0912101BC01CD0128DA80910401A7
S1130E20813021F4809105018038D1F18091040151
S1130E30823021F480910501803891F18091040180
S1130E40843021F480910501803851F180910401AE
S1130E50883021F480910501803811F180910401DA
S1130E60803121F4809105018038D1F08091040112
S1130E70803221F480910501803891F08091040141
S1130E80803421F480910501803851F0809104016F
S1130E90803809F06EC080910501803809F069C07E
S1130EA080914A01282F30E0809122019091230102
S1130EB0A0912401B0912501220F331F220F331F6B
S1130EC0255B3E4FF90180839183A283B383809194
S1130ED0220190912301A0912401B0912501BC012C
S1130EE0CD01C4D946C0209131018DEC289F812DBC
S1130EF01124982F96959695892F880F880F890F1E
S1130F00922F981B9923E9F480914A01882F90E04D
S1130F10880F991F880F991F855B9E4FFC01808164
S1130F209181A281B381BC01CD01A0D980914A01F4
S1130F30883020F480914A018F5F01C080E0809363
S1130F404A01809131018F5F8093310113C060E0C9
S1130F5070E0CB018BD985E290E027E0FC0120838F
S1130F60109204011092050105C0000003C00000A6
S1130F7001C0000080910401809529DA8091050167
S1130F806FDA8B819C810F900F900F900F90DF91FF
S1130F90CF9108950F931F93CF93DF93CDB7DEB70F
S1130FA027970FB6F894DEBF0FBECDBF81E290E065
S1130FB0FC01108282E290E02FEFFC01208387E2A3
S1130FC090E02FEFFC01208388E290E0FC01108286
S1130FD08AE290E02FEFFC0120838BE290E0FC0199
S1130FE0108284E290E02FEFFC01208385E290E000
S1130FF0FC01108282E391E09D838C838DE391E078
S11310009F838E8382E090E09B838A838FEF80931B
S1131010320182E390E0A0E0B0E08093330190934A
S11310203401A0933501B09336018091330190913E
S11310303401A0913501B09136018093370190932A
S11310403801A0933901B0933A0186E493E0909378
S11310503C0180933B018FEF80933D0182E390E05C
S1131060A0E0B0E080933E0190933F01A093400143
S1131070B093410180913E0190913F01A0914001C4
S1131080B09141018093420190934301A0934401A4
S1131090B09345018FEC92E0909347018093460111
S11310A062E370E080E090E010D83DD87AD91982EC
S11310B0A1C08981882F90E0880F991F9E012F5F1E
S11310C03F4F820F931F0396FC0180819181FC01A5
S11310D025813681478150858981882F90E0880F4A
S11310E0991FBE016F5F7F4F860F971F0396FC0108
S11310F080819181FC0181819281A381B48128172F
S113110039074A075B0709F049C08981882F90E0B5
S1131110880F991F9E012F5F3F4F820F931F0396E5
S1131120FC01008111818981882F90E0880F991F2B
S11311309E012F5F3F4F820F931F0396FC01808116
S11311409181FC01218532858981882F90E0880F67
S1131150991FAE014F5F5F4F840F951F0396FC01EB
S113116080819181FC018081082E000C990BF9018A
S11311700995F80180838981882F90E0880F991F51
S11311809E012F5F3F4F820F931F0396FC018081C6
S11311909181FC0115821682178210868981882F1D
S11311A090E0880F991F9E012F5F3F4F820F931F7E
S11311B00396FC01208131818981882F90E0880F7A
S11311C0991FAE014F5F5F4F840F951F0396FC017B
S11311D080819181FC0185819681A781B085C29629
S11311E0A11DB11DF90185839683A783B0878981E9
S11311F08F5F89838981282F30E08A819B8128171A
S1131200390708F456CF0000809126018823E1F3C2
S1131210109226014CCF9CD008F481E008950CD0A4
S1131220D2C0CAD040F0C1D030F021F45F3F19F0F1
S1131230B3C05111FCC0B6C0D7D098F39923C9F3F9
S11312405523B1F3951B550BBB27AA2762177307C8
S1131250840738F09F5F5F4F220F331F441FAA1F7C
S1131260A9F333D00E2E3AF0E0E830D0915050403C
S1131270E695001CCAF729D0FE2F27D0660F771FEA
S1131280881FBB1F261737074807AB07B0E809F0CC
S1131290BB0B802DBF01FF2793585F4F2AF09E3F61
S11312A0510568F079C0C3C05F3FECF3983EDCF3AE
S11312B0869577956795B795F7959F5FC9F7880FDA
S11312C0911D9695879597F90895E1E0660F771F2C
S11312D0881FBB1F621773078407BA0720F0621BBD
S11312E0730B840BBA0BEE1F88F7E095089504D0B6
S11312F06894B1119CC008957FD088F09F5790F0F6
S1131300B92F9927B751A0F0D1F0660F771F881F26
S1131310991F1AF0BA95C9F712C0B13081F086D07E
S1131320B1E0089583C0672F782F8827B85F39F01C
S1131330B93FCCF3869577956795B395D9F73EF485
S113134090958095709561957F4F8F4F9F4F08952D
S1131350990F0008550FAA0BE0E8FEEF16161706C2
S1131360E807F907C0F012161306E407F50798F02A
S1131370621B730B840B950B39F40A2661F0232B43
S1131380242B252B21F408950A2609F4A140A695BF
S11313908FEF811D811D089597F99F6780E870E0A4
S11313A060E008959FEF80EC089500240A941616D7
S11313B0170618060906089500240A94121613063F
S11313C0140605060895092E0394000C11F48823CD
S11313D052F0BB0F40F4BF2B11F460FF04C06F5FE9
S11313E07F4F8F4F9F4F089557FD9058440F551FBF
S11313F059F05F3F71F04795880F97FB991F61F093
S11314009F3F79F087950895121613061406551F09
S1131410F2CF4695F1DF08C0161617061806991F75
S1131420F1CF86957105610508940895E894BB276A
S113143066277727CB0197F908958ADF08F48FEFA1
S113144008950BD0C0CFB1DF28F0B6DF18F0952394
S113145009F0A2CFA7CF1124EACFC6DFA0F3959F4E
S1131460D1F3950F50E0551F629FF001729FBB2787
S1131470F00DB11D639FAA27F00DB11DAA1F649F33
S11314806627B00DA11D661F829F2227B00DA11DE6
S1131490621F739FB00DA11D621F839FA00D611D6C
S11314A0221F749F3327A00D611D231F849F600D8D
S11314B0211D822F762F6A2F11249F5750408AF0C6
S11314C0E1F088234AF0EE0FFF1FBB1F661F771F52
S11314D0881F91505040A9F79E3F510570F05CCF92
S11314E0A6CF5F3FECF3983EDCF38695779567953E
S11314F0B795F795E7959F5FC1F7FE2B880F911D70
S10F15009695879597F90895F894FFCF0D
S113150C010000000101A4D082437BD49243A4D0F7
S113151CA443719DAE430000C4430000DC43A4F01B
S109152CF64348F1764489
S9030000FC
